{
  "contractName": "ProjectAgreements",
  "abi": [
    {
      "inputs": [
        {
          "internalType": "string",
          "name": "_name",
          "type": "string"
        },
        {
          "internalType": "string",
          "name": "_description",
          "type": "string"
        },
        {
          "internalType": "address payable",
          "name": "_client",
          "type": "address"
        }
      ],
      "payable": false,
      "stateMutability": "nonpayable",
      "type": "constructor"
    },
    {
      "constant": true,
      "inputs": [],
      "name": "idGenerator",
      "outputs": [
        {
          "internalType": "uint256",
          "name": "",
          "type": "uint256"
        }
      ],
      "payable": false,
      "stateMutability": "view",
      "type": "function"
    },
    {
      "constant": true,
      "inputs": [],
      "name": "serviceProvider",
      "outputs": [
        {
          "internalType": "address payable",
          "name": "",
          "type": "address"
        }
      ],
      "payable": false,
      "stateMutability": "view",
      "type": "function"
    },
    {
      "constant": false,
      "inputs": [],
      "name": "deposit",
      "outputs": [
        {
          "internalType": "uint256",
          "name": "",
          "type": "uint256"
        }
      ],
      "payable": true,
      "stateMutability": "payable",
      "type": "function"
    },
    {
      "constant": false,
      "inputs": [
        {
          "internalType": "uint256",
          "name": "_withdrawAmount",
          "type": "uint256"
        }
      ],
      "name": "clientWithdrawal",
      "outputs": [
        {
          "internalType": "uint256",
          "name": "",
          "type": "uint256"
        }
      ],
      "payable": true,
      "stateMutability": "payable",
      "type": "function"
    },
    {
      "constant": false,
      "inputs": [
        {
          "internalType": "uint256",
          "name": "_withdrawAmount",
          "type": "uint256"
        }
      ],
      "name": "serviceProviderWithdrawal",
      "outputs": [
        {
          "internalType": "uint256",
          "name": "",
          "type": "uint256"
        }
      ],
      "payable": true,
      "stateMutability": "payable",
      "type": "function"
    },
    {
      "constant": false,
      "inputs": [
        {
          "internalType": "string",
          "name": "_name",
          "type": "string"
        },
        {
          "internalType": "string",
          "name": "_description",
          "type": "string"
        },
        {
          "internalType": "uint256",
          "name": "_initialPayment",
          "type": "uint256"
        },
        {
          "internalType": "uint256",
          "name": "_finalPayment",
          "type": "uint256"
        }
      ],
      "name": "createPhase",
      "outputs": [
        {
          "internalType": "uint256",
          "name": "",
          "type": "uint256"
        }
      ],
      "payable": false,
      "stateMutability": "nonpayable",
      "type": "function"
    },
    {
      "constant": true,
      "inputs": [],
      "name": "readProject",
      "outputs": [
        {
          "internalType": "string",
          "name": "name",
          "type": "string"
        },
        {
          "internalType": "string",
          "name": "description",
          "type": "string"
        },
        {
          "internalType": "address",
          "name": "client",
          "type": "address"
        },
        {
          "internalType": "uint256",
          "name": "currentPhase",
          "type": "uint256"
        },
        {
          "internalType": "uint256",
          "name": "serviceProviderBalance",
          "type": "uint256"
        },
        {
          "internalType": "uint256",
          "name": "escrowBalance",
          "type": "uint256"
        },
        {
          "internalType": "uint256",
          "name": "clientBalance",
          "type": "uint256"
        },
        {
          "internalType": "bool",
          "name": "clientApprovedPhaseStructure",
          "type": "bool"
        },
        {
          "internalType": "bool",
          "name": "projectCancelled",
          "type": "bool"
        },
        {
          "internalType": "bool",
          "name": "projectCompleted",
          "type": "bool"
        },
        {
          "internalType": "bool",
          "name": "phaseExists",
          "type": "bool"
        }
      ],
      "payable": false,
      "stateMutability": "view",
      "type": "function"
    },
    {
      "constant": true,
      "inputs": [
        {
          "internalType": "uint256",
          "name": "_phase",
          "type": "uint256"
        }
      ],
      "name": "readPhase",
      "outputs": [
        {
          "internalType": "string",
          "name": "name",
          "type": "string"
        },
        {
          "internalType": "string",
          "name": "description",
          "type": "string"
        },
        {
          "internalType": "uint256",
          "name": "initialPayment",
          "type": "uint256"
        },
        {
          "internalType": "uint256",
          "name": "finalPayment",
          "type": "uint256"
        },
        {
          "internalType": "bool",
          "name": "phaseStarted",
          "type": "bool"
        },
        {
          "internalType": "bool",
          "name": "clientApproved",
          "type": "bool"
        }
      ],
      "payable": false,
      "stateMutability": "view",
      "type": "function"
    },
    {
      "constant": false,
      "inputs": [],
      "name": "serviceProviderStartNextPhase",
      "outputs": [
        {
          "internalType": "uint256",
          "name": "",
          "type": "uint256"
        }
      ],
      "payable": false,
      "stateMutability": "nonpayable",
      "type": "function"
    },
    {
      "constant": false,
      "inputs": [],
      "name": "approvePhaseStructure",
      "outputs": [
        {
          "internalType": "bool",
          "name": "",
          "type": "bool"
        }
      ],
      "payable": false,
      "stateMutability": "nonpayable",
      "type": "function"
    },
    {
      "constant": false,
      "inputs": [],
      "name": "approvePhase",
      "outputs": [
        {
          "internalType": "bool",
          "name": "",
          "type": "bool"
        }
      ],
      "payable": false,
      "stateMutability": "nonpayable",
      "type": "function"
    },
    {
      "constant": false,
      "inputs": [],
      "name": "cancelProject",
      "outputs": [
        {
          "internalType": "bool",
          "name": "",
          "type": "bool"
        }
      ],
      "payable": false,
      "stateMutability": "nonpayable",
      "type": "function"
    }
  ],
  "bytecode": "0x6080604052600180553480156200001557600080fd5b50604051620023e7380380620023e7833981810160405260608110156200003b57600080fd5b81019080805160405193929190846401000000008211156200005c57600080fd5b838201915060208201858111156200007357600080fd5b82518660018202830111640100000000821117156200009157600080fd5b8083526020830192505050908051906020019080838360005b83811015620000c7578082015181840152602081019050620000aa565b50505050905090810190601f168015620000f55780820380516001836020036101000a031916815260200191505b50604052602001805160405193929190846401000000008211156200011957600080fd5b838201915060208201858111156200013057600080fd5b82518660018202830111640100000000821117156200014e57600080fd5b8083526020830192505050908051906020019080838360005b838110156200018457808201518184015260208101905062000167565b50505050905090810190601f168015620001b25780820380516001836020036101000a031916815260200191505b5060405260200180519060200190929190505050336000806101000a81548173ffffffffffffffffffffffffffffffffffffffff021916908373ffffffffffffffffffffffffffffffffffffffff16021790555082600260000190805190602001906200022192919062000323565b5081600260010190805190602001906200023d92919062000323565b50806002800160006101000a81548173ffffffffffffffffffffffffffffffffffffffff021916908373ffffffffffffffffffffffffffffffffffffffff1602179055506000600260040181905550600060026005018190555060006002600601819055506000600260080160006101000a81548160ff0219169083151502179055506000600260080160016101000a81548160ff0219169083151502179055506000600260080160026101000a81548160ff0219169083151502179055506000600260080160036101000a81548160ff021916908315150217905550505050620003d2565b828054600181600116156101000203166002900490600052602060002090601f016020900481019282601f106200036657805160ff191683800117855562000397565b8280016001018555821562000397579182015b828111156200039657825182559160200191906001019062000379565b5b509050620003a69190620003aa565b5090565b620003cf91905b80821115620003cb576000816000905550600101620003b1565b5090565b90565b61200580620003e26000396000f3fe6080604052600436106100a75760003560e01c80638d69e95e116100645780638d69e95e14610459578063a39159d1146104b0578063aee624b014610627578063d0e30db014610656578063db17794014610674578063e7bd92b91461069f576100a7565b80631adff0ee146100ac57806347e29153146100db57806351a163cc1461011d57806356d347c01461015f5780635b0f59d3146102a3578063603fe98c1461042a575b600080fd5b3480156100b857600080fd5b506100c16106ca565b604051808215151515815260200191505060405180910390f35b610107600480360360208110156100f157600080fd5b8101908080359060200190929190505050610a38565b6040518082815260200191505060405180910390f35b6101496004803603602081101561013357600080fd5b8101908080359060200190929190505050610be8565b6040518082815260200191505060405180910390f35b34801561016b57600080fd5b506101986004803603602081101561018257600080fd5b8101908080359060200190929190505050610d75565b6040518080602001806020018781526020018681526020018515151515815260200184151515158152602001838103835289818151815260200191508051906020019080838360005b838110156101fc5780820151818401526020810190506101e1565b50505050905090810190601f1680156102295780820380516001836020036101000a031916815260200191505b50838103825288818151815260200191508051906020019080838360005b83811015610262578082015181840152602081019050610247565b50505050905090810190601f16801561028f5780820380516001836020036101000a031916815260200191505b509850505050505050505060405180910390f35b3480156102af57600080fd5b50610414600480360360808110156102c657600080fd5b81019080803590602001906401000000008111156102e357600080fd5b8201836020820111156102f557600080fd5b8035906020019184600183028401116401000000008311171561031757600080fd5b91908080601f016020809104026020016040519081016040528093929190818152602001838380828437600081840152601f19601f8201169050808301925050505050505091929192908035906020019064010000000081111561037a57600080fd5b82018360208201111561038c57600080fd5b803590602001918460018302840111640100000000831117156103ae57600080fd5b91908080601f016020809104026020016040519081016040528093929190818152602001838380828437600081840152601f19601f8201169050808301925050505050505091929192908035906020019092919080359060200190929190505050610f8b565b6040518082815260200191505060405180910390f35b34801561043657600080fd5b5061043f611141565b604051808215151515815260200191505060405180910390f35b34801561046557600080fd5b5061046e611474565b604051808273ffffffffffffffffffffffffffffffffffffffff1673ffffffffffffffffffffffffffffffffffffffff16815260200191505060405180910390f35b3480156104bc57600080fd5b506104c5611499565b6040518080602001806020018c73ffffffffffffffffffffffffffffffffffffffff1673ffffffffffffffffffffffffffffffffffffffff1681526020018b81526020018a81526020018981526020018881526020018715151515815260200186151515158152602001851515151581526020018415151515815260200183810383528e818151815260200191508051906020019080838360005b8381101561057b578082015181840152602081019050610560565b50505050905090810190601f1680156105a85780820380516001836020036101000a031916815260200191505b5083810382528d818151815260200191508051906020019080838360005b838110156105e15780820151818401526020810190506105c6565b50505050905090810190601f16801561060e5780820380516001836020036101000a031916815260200191505b509d505050505050505050505050505060405180910390f35b34801561063357600080fd5b5061063c6116b3565b604051808215151515815260200191505060405180910390f35b61065e6118ab565b6040518082815260200191505060405180910390f35b34801561068057600080fd5b50610689611990565b6040518082815260200191505060405180910390f35b3480156106ab57600080fd5b506106b4611d61565b6040518082815260200191505060405180910390f35b60006002800160009054906101000a900473ffffffffffffffffffffffffffffffffffffffff1673ffffffffffffffffffffffffffffffffffffffff163373ffffffffffffffffffffffffffffffffffffffff16148061077657506000809054906101000a900473ffffffffffffffffffffffffffffffffffffffff1673ffffffffffffffffffffffffffffffffffffffff163373ffffffffffffffffffffffffffffffffffffffff16145b6107cb576040517f08c379a000000000000000000000000000000000000000000000000000000000815260040180806020018281038252603c815260200180611e66603c913960400191505060405180910390fd5b6002800160009054906101000a900473ffffffffffffffffffffffffffffffffffffffff1673ffffffffffffffffffffffffffffffffffffffff163373ffffffffffffffffffffffffffffffffffffffff1614156108e857600260030160006002600401548152602001908152602001600020600201546002600501600082825401925050819055506002600301600060026004015481526020019081526020016000206002015460026006016000828254039250508190555060026003016000600260040154815260200190815260200160002060030154600260070160008282540192505081905550600260030160006002600401548152602001908152602001600020600301546002600601600082825403925050819055505b6000809054906101000a900473ffffffffffffffffffffffffffffffffffffffff1673ffffffffffffffffffffffffffffffffffffffff163373ffffffffffffffffffffffffffffffffffffffff161415610a0257600260030160006002600401548152602001908152602001600020600201546002600701600082825401925050819055506002600301600060026004015481526020019081526020016000206002015460026006016000828254039250508190555060026003016000600260040154815260200190815260200160002060030154600260070160008282540192505081905550600260030160006002600401548152602001908152602001600020600301546002600601600082825403925050819055505b6001600260080160016101000a81548160ff021916908315150217905550600260080160019054906101000a900460ff16905090565b60006002800160009054906101000a900473ffffffffffffffffffffffffffffffffffffffff1673ffffffffffffffffffffffffffffffffffffffff163373ffffffffffffffffffffffffffffffffffffffff1614610aff576040517f08c379a000000000000000000000000000000000000000000000000000000000815260040180806020018281038252601c8152602001807f4d6573736167652073656e646572206973206e6f7420636c69656e740000000081525060200191505060405180910390fd5b816002600701541015610b5d576040517f08c379a000000000000000000000000000000000000000000000000000000000815260040180806020018281038252603c815260200180611ea2603c913960400191505060405180910390fd5b816002600701600082825403925050819055506002800160009054906101000a900473ffffffffffffffffffffffffffffffffffffffff1673ffffffffffffffffffffffffffffffffffffffff166108fc839081150290604051600060405180830381858888f19350505050158015610bda573d6000803e3d6000fd5b506002600701549050919050565b60008060009054906101000a900473ffffffffffffffffffffffffffffffffffffffff1673ffffffffffffffffffffffffffffffffffffffff163373ffffffffffffffffffffffffffffffffffffffff1614610c8f576040517f08c379a0000000000000000000000000000000000000000000000000000000008152600401808060200182810382526026815260200180611e0d6026913960400191505060405180910390fd5b816002600501541015610ced576040517f08c379a000000000000000000000000000000000000000000000000000000000815260040180806020018281038252603c815260200180611ea2603c913960400191505060405180910390fd5b816002600501600082825403925050819055506000809054906101000a900473ffffffffffffffffffffffffffffffffffffffff1673ffffffffffffffffffffffffffffffffffffffff166108fc839081150290604051600060405180830381858888f19350505050158015610d67573d6000803e3d6000fd5b506002600501549050919050565b606080600080600080600260030160008881526020019081526020016000206000018054600181600116156101000203166002900480601f016020809104026020016040519081016040528092919081815260200182805460018160011615610100020316600290048015610e2b5780601f10610e0057610100808354040283529160200191610e2b565b820191906000526020600020905b815481529060010190602001808311610e0e57829003601f168201915b50505050509550600260030160008881526020019081526020016000206001018054600181600116156101000203166002900480601f016020809104026020016040519081016040528092919081815260200182805460018160011615610100020316600290048015610edf5780601f10610eb457610100808354040283529160200191610edf565b820191906000526020600020905b815481529060010190602001808311610ec257829003601f168201915b5050505050945060026003016000888152602001908152602001600020600201549350600260030160008881526020019081526020016000206003015492506002600301600088815260200190815260200160002060040160009054906101000a900460ff1691506002600301600088815260200190815260200160002060040160019054906101000a900460ff16905085858585858595509550955095509550955091939550919395565b60008060009054906101000a900473ffffffffffffffffffffffffffffffffffffffff1673ffffffffffffffffffffffffffffffffffffffff163373ffffffffffffffffffffffffffffffffffffffff1614611032576040517f08c379a0000000000000000000000000000000000000000000000000000000008152600401808060200182810382526026815260200180611e0d6026913960400191505060405180910390fd5b60001515600260080160009054906101000a900460ff161515146110a1576040517f08c379a000000000000000000000000000000000000000000000000000000000815260040180806020018281038252603c815260200180611f3b603c913960400191505060405180910390fd5b60006002600301600060015481526020019081526020016000209050858160000190805190602001906110d5929190611d67565b50848160010190805190602001906110ee929190611d67565b508381600201819055508281600301819055506001600081548092919060010191905055506001600260080160036101000a81548160ff0219169083151502179055506001805403915050949350505050565b60006002800160009054906101000a900473ffffffffffffffffffffffffffffffffffffffff1673ffffffffffffffffffffffffffffffffffffffff163373ffffffffffffffffffffffffffffffffffffffff1614611208576040517f08c379a000000000000000000000000000000000000000000000000000000000815260040180806020018281038252601c8152602001807f4d6573736167652073656e646572206973206e6f7420636c69656e740000000081525060200191505060405180910390fd5b6000151560026003016000600260040154815260200190815260200160002060040160019054906101000a900460ff16151514611290576040517f08c379a0000000000000000000000000000000000000000000000000000000008152600401808060200182810382526029815260200180611f126029913960400191505060405180910390fd5b6001151560026003016000600260040154815260200190815260200160002060040160009054906101000a900460ff16151514611318576040517f08c379a0000000000000000000000000000000000000000000000000000000008152600401808060200182810382526038815260200180611f776038913960400191505060405180910390fd5b600160026003016000600260040154815260200190815260200160002060040160016101000a81548160ff0219169083151502179055506002600301600060026004015481526020019081526020016000206002015460026005016000828254019250508190555060026003016000600260040154815260200190815260200160002060030154600260050160008282540192505081905550600260030160006002600401548152602001908152602001600020600201546002600601600082825403925050819055506002600301600060026004015481526020019081526020016000206003015460026006016000828254039250508190555060018054036002600401541415611443576001600260080160026101000a81548160ff0219169083151502179055505b60026003016000600260040154815260200190815260200160002060040160019054906101000a900460ff16905090565b6000809054906101000a900473ffffffffffffffffffffffffffffffffffffffff1681565b606080600080600080600080600080600060026000018054600181600116156101000203166002900480601f0160208091040260200160405190810160405280929190818152602001828054600181600116156101000203166002900480156115435780601f1061151857610100808354040283529160200191611543565b820191906000526020600020905b81548152906001019060200180831161152657829003601f168201915b50505050509a5060026001018054600181600116156101000203166002900480601f0160208091040260200160405190810160405280929190818152602001828054600181600116156101000203166002900480156115e35780601f106115b8576101008083540402835291602001916115e3565b820191906000526020600020905b8154815290600101906020018083116115c657829003601f168201915b505050505099506002800160009054906101000a900473ffffffffffffffffffffffffffffffffffffffff1698506002600401549750600260050154965060026006015495506002600701549450600260080160009054906101000a900460ff169350600260080160019054906101000a900460ff169250600260080160029054906101000a900460ff169150600260080160039054906101000a900460ff1690508a8a8a8a8a8a8a8a8a8a8a9a509a509a509a509a509a509a509a509a509a509a50909192939495969798999a565b60006002800160009054906101000a900473ffffffffffffffffffffffffffffffffffffffff1673ffffffffffffffffffffffffffffffffffffffff163373ffffffffffffffffffffffffffffffffffffffff161461177a576040517f08c379a000000000000000000000000000000000000000000000000000000000815260040180806020018281038252601c8152602001807f4d6573736167652073656e646572206973206e6f7420636c69656e740000000081525060200191505060405180910390fd5b60011515600260080160039054906101000a900460ff16151514611806576040517f08c379a000000000000000000000000000000000000000000000000000000000815260040180806020018281038252601f8152602001807f4e6f207068617365732068617665206265656e2063726561746564207965740081525060200191505060405180910390fd5b60001515600260080160009054906101000a900460ff16151514611875576040517f08c379a0000000000000000000000000000000000000000000000000000000008152600401808060200182810382526033815260200180611e336033913960400191505060405180910390fd5b6001600260080160006101000a81548160ff021916908315150217905550600260080160009054906101000a900460ff16905090565b60006002800160009054906101000a900473ffffffffffffffffffffffffffffffffffffffff1673ffffffffffffffffffffffffffffffffffffffff163373ffffffffffffffffffffffffffffffffffffffff1614611972576040517f08c379a000000000000000000000000000000000000000000000000000000000815260040180806020018281038252601c8152602001807f4d6573736167652073656e646572206973206e6f7420636c69656e740000000081525060200191505060405180910390fd5b34600260070160008282540192505081905550600260070154905090565b60008060009054906101000a900473ffffffffffffffffffffffffffffffffffffffff1673ffffffffffffffffffffffffffffffffffffffff163373ffffffffffffffffffffffffffffffffffffffff1614611a37576040517f08c379a0000000000000000000000000000000000000000000000000000000008152600401808060200182810382526026815260200180611e0d6026913960400191505060405180910390fd5b6001151560026003016000600260040154815260200190815260200160002060040160019054906101000a900460ff1615151480611a7a57506000600260040154145b611aec576040517f08c379a00000000000000000000000000000000000000000000000000000000081526004018080602001828103825260208152602001807f50726576696f7573207068617365206d75737420626520636f6d706c6574656481525060200191505060405180910390fd5b60001515600260080160029054906101000a900460ff16151514611b5b576040517f08c379a0000000000000000000000000000000000000000000000000000000008152600401808060200182810382526022815260200180611faf6022913960400191505060405180910390fd5b60001515600260080160019054906101000a900460ff16151514611be7576040517f08c379a000000000000000000000000000000000000000000000000000000000815260040180806020018281038252601a8152602001807f50726f6a65637420686173206265656e2063616e63656c6c656400000000000081525060200191505060405180910390fd5b6000600160026004015401905060026003016000828152602001908152602001600020600301546002600301600083815260200190815260200160002060020154016002600701541015611c86576040517f08c379a0000000000000000000000000000000000000000000000000000000008152600401808060200182810382526034815260200180611ede6034913960400191505060405180910390fd5b8060026004018190555060026003016000828152602001908152602001600020600301546002600301600083815260200190815260200160002060020154016002600701600082825403925050819055506002600301600082815260200190815260200160002060030154600260030160008381526020019081526020016000206002015401600260060160008282540192505081905550600160026003016000600260040154815260200190815260200160002060040160006101000a81548160ff02191690831515021790555060026004015491505090565b60015481565b828054600181600116156101000203166002900490600052602060002090601f016020900481019282601f10611da857805160ff1916838001178555611dd6565b82800160010185558215611dd6579182015b82811115611dd5578251825591602001919060010190611dba565b5b509050611de39190611de7565b5090565b611e0991905b80821115611e05576000816000905550600101611ded565b5090565b9056fe4d6573736167652073656e646572206973206e6f7420736572766963652070726f766964657254686520636c69656e742068617320616c726561647920617070726f7665642074686520706861736520737472756374757265436f6e74726163742063616e206f6e6c792062652063616e63656c6c656420627920636c69656e74206f7220736572766963652070726f7669646572416d6f756e742072657175657374656420746f2077697468647261772069732067726561746572207468616e2063757272656e742062616c616e6365436c69656e742062616c616e6365206973206e6f742073756666696369656e7420746f20626567696e2074686973207068617365436c69656e742068617320616c726561647920617070726f7665642063757272656e74207068617365436c69656e742068617320617070726f7665642070686173652073747275637475726520736f2069742063616e6e6f74206265206368616e6765642e5468697320706861736520686173206e6f74206265656e207374617274656420736f2069742063616e6e6f7420626520617070726f76656450726f6a6563742068617320616c7265616479206265656e20636f6d706c65746564a265627a7a72315820e8d553d747ea1bb55e3d447544db3a9ac61fcdf2367af1205465ceab9fa6856f64736f6c634300050c0032",
  "source": "pragma solidity >=0.4.21 <0.7.0;\n\n// @title Project Agreements: Self-enforcing smart contracts avoid project work disputes\n// @author Jerry Fireman\n\ncontract ProjectAgreements {\n\n    // @dev The person providing the service\n    address payable public serviceProvider;\n\n    // @dev Used to track the numbers of project phases\n    uint public idGenerator = 1;\n\n    // @dev Tracks the information associated with each phase\n    struct Phase {\n        string name;\n        string description;\n        uint initialPayment; // this goes to service provider when client approves phase;\n            // it goes to service provider if client cancels or client if service provider cancels\n        uint finalPayment; // this goes to service provider when client approves phase; to client if service provider or client cancels\n        bool phaseStarted; // service provider starts the phase; initial payment moves into escrow\n        bool clientApproved; // set true when client approves phase\n    }\n\n    // @dev Tracks the information associated with the project\n    struct Project {\n        string name;\n        string description;\n        address payable client;\n        mapping (uint => Phase) phases;\n        uint currentPhase;\n        uint serviceProviderBalance;\n        uint escrowBalance;\n        uint clientBalance;\n        bool clientApprovedPhaseStructure;\n        bool projectCancelled;\n        bool projectCompleted;\n        bool phaseExists; // Tracks whether at least one phase has been created\n    }\n\n    Project thisProject;\n\n    // @dev Throws error if the msg.sender is not the service provider\n    modifier onlyServiceProvider {\n        require(msg.sender == serviceProvider, \"Message sender is not service provider\");\n        _;\n    }\n\n    // @dev Throws error if the msg.sender is not the client\n    modifier onlyClient {\n        require(msg.sender == thisProject.client, \"Message sender is not client\");\n        _;\n    }\n\n    // @dev Throws error if phase structure has been approved by client\n    modifier phaseStructureNotApproved {\n        require(thisProject.clientApprovedPhaseStructure == false, \"Client has approved phase structure so it cannot be changed.\");\n        _;\n    }\n\n    // @dev Sets serviceProvider to the address that instantiated the project\n    // @dev Sets the appropriate project details\n    constructor(string memory _name, string memory _description, address payable _client)\n        public\n    {\n        serviceProvider = msg.sender;\n        thisProject.name = _name;\n        thisProject.description = _description;\n        thisProject.client = _client;\n        thisProject.currentPhase = 0;\n        thisProject.serviceProviderBalance = 0;\n        thisProject.escrowBalance = 0;\n        thisProject.clientApprovedPhaseStructure = false;\n        thisProject.projectCancelled = false;\n        thisProject.projectCompleted = false;\n        thisProject.phaseExists = false;\n    }\n\n    // @dev Used by client to deposit funds into contract\n    function deposit()\n        public\n        payable\n        onlyClient\n        returns (uint)\n    {\n        thisProject.clientBalance += msg.value;\n        return thisProject.clientBalance;\n    }\n\n    // @dev Used by client to withdraw funds from contract\n    // @param _withdrawAmount amount client wants to withdraw\n    function clientWithdrawal(uint _withdrawAmount)\n        public\n        payable\n        onlyClient\n        returns (uint)\n    {\n        require(thisProject.clientBalance >= _withdrawAmount, \"Amount requested to withdraw is greater than current balance\");\n        thisProject.clientBalance -= _withdrawAmount;\n        thisProject.client.transfer(_withdrawAmount);\n        return thisProject.clientBalance;\n    }\n\n    /// @dev Used by service provider to withdraw funds from contract\n    /// @param _withdrawAmount amount service provider wants to withdraw\n    function serviceProviderWithdrawal(uint _withdrawAmount)\n        public\n        payable\n        onlyServiceProvider\n        returns (uint)\n    {\n        require(thisProject.serviceProviderBalance >= _withdrawAmount, \"Amount requested to withdraw is greater than current balance\");\n        thisProject.serviceProviderBalance -= _withdrawAmount;\n        serviceProvider.transfer(_withdrawAmount);\n        return thisProject.serviceProviderBalance;\n    }\n\n    // @dev Used by service provider to define a phase of the project\n    // @param _name name of the phase\n    // @param _description description of the phase\n    // @param _initialPayment amount that service provider earns even if phase cancelled by client\n    // @param _finalPayment refunded to client if phase is cancelled\n    function createPhase(string memory _name, string memory _description, uint _initialPayment, uint _finalPayment)\n        public\n        onlyServiceProvider\n        phaseStructureNotApproved\n        returns(uint)\n    {\n        Phase storage newPhase = thisProject.phases[idGenerator];\n        newPhase.name = _name;\n        newPhase.description = _description;\n        newPhase.initialPayment = _initialPayment;\n        newPhase.finalPayment = _finalPayment;\n        idGenerator++;\n        thisProject.phaseExists = true;\n        return idGenerator - 1;\n    }\n\n    // @dev Provides information on the current project\n    function readProject()\n        public\n        view\n        returns(string memory name, string memory description, address client, uint currentPhase, uint serviceProviderBalance, uint escrowBalance, uint clientBalance, bool clientApprovedPhaseStructure, bool projectCancelled, bool projectCompleted, bool phaseExists)\n    {\n        name = thisProject.name;\n        description = thisProject.description;\n        client = thisProject.client;\n        currentPhase = thisProject.currentPhase;\n        serviceProviderBalance = thisProject.serviceProviderBalance;\n        escrowBalance = thisProject.escrowBalance;\n        clientBalance = thisProject.clientBalance;\n        clientApprovedPhaseStructure = thisProject.clientApprovedPhaseStructure;\n        projectCancelled = thisProject.projectCancelled;\n        projectCompleted = thisProject.projectCompleted;\n        phaseExists = thisProject.phaseExists;\n        return(name, description, client, currentPhase, serviceProviderBalance,\n            escrowBalance, clientBalance, clientApprovedPhaseStructure,\n            projectCancelled, projectCompleted, phaseExists);\n    }\n\n     // @dev Provides information on a phase of the project\n     // @param phase of the project for which information is request\n    function readPhase(uint _phase)\n        public\n        view\n        returns(string memory name, string memory description, uint initialPayment, uint finalPayment, bool phaseStarted, bool clientApproved)\n    {\n        name = thisProject.phases[_phase].name;\n        description = thisProject.phases[_phase].description;\n        initialPayment = thisProject.phases[_phase].initialPayment;\n        finalPayment = thisProject.phases[_phase].finalPayment;\n        phaseStarted = thisProject.phases[_phase].phaseStarted;\n        clientApproved = thisProject.phases[_phase].clientApproved;\n\n        return(name, description, initialPayment, finalPayment, phaseStarted, clientApproved);\n    }\n\n    // @dev Executed by service provider to start the next phase of the project\n    function serviceProviderStartNextPhase()\n        public\n        onlyServiceProvider\n        returns(uint)\n    {\n        require(thisProject.phases[thisProject.currentPhase].clientApproved == true || (thisProject.currentPhase == 0),\n            \"Previous phase must be completed\");\n        require(thisProject.projectCompleted == false, \"Project has already been completed\");\n        require(thisProject.projectCancelled == false, \"Project has been cancelled\");\n        uint nextPhase = (thisProject.currentPhase + 1);\n        require(thisProject.clientBalance >= thisProject.phases[nextPhase].initialPayment + thisProject.phases[nextPhase].finalPayment,\n            \"Client balance is not sufficient to begin this phase\");\n        thisProject.currentPhase = nextPhase;\n        thisProject.clientBalance -= thisProject.phases[nextPhase].initialPayment + thisProject.phases[nextPhase].finalPayment;\n        thisProject.escrowBalance += thisProject.phases[nextPhase].initialPayment + thisProject.phases[nextPhase].finalPayment;\n        thisProject.phases[thisProject.currentPhase].phaseStarted = true;\n        return thisProject.currentPhase;\n    }\n\n    // @dev Executed by client to approve and finalize the phase structure of the project.\n    function approvePhaseStructure()\n        public\n        onlyClient\n        returns(bool)\n    {\n        require(thisProject.phaseExists == true,\"No phases have been created yet\");\n        require(thisProject.clientApprovedPhaseStructure == false,\"The client has already approved the phase structure\");\n        thisProject.clientApprovedPhaseStructure = true;\n        return thisProject.clientApprovedPhaseStructure;\n    }\n\n     // @dev Used by client to approve and finalize the current phase\n    function approvePhase()\n        public\n        onlyClient\n        returns(bool)\n    {\n        require(thisProject.phases[thisProject.currentPhase].clientApproved == false,\"Client has already approved current phase\");\n        require(thisProject.phases[thisProject.currentPhase].phaseStarted == true,\"This phase has not been started so it cannot be approved\");\n        thisProject.phases[thisProject.currentPhase].clientApproved = true;\n        thisProject.serviceProviderBalance += thisProject.phases[thisProject.currentPhase].initialPayment;\n        thisProject.serviceProviderBalance += thisProject.phases[thisProject.currentPhase].finalPayment;\n        thisProject.escrowBalance -= thisProject.phases[thisProject.currentPhase].initialPayment;\n        thisProject.escrowBalance -= thisProject.phases[thisProject.currentPhase].finalPayment;\n        // @dev If the current phase is the last phase of the project then project is finished\n        if (thisProject.currentPhase == (idGenerator - 1))\n        {\n            thisProject.projectCompleted = true;\n        }\n        return thisProject.phases[thisProject.currentPhase].clientApproved;\n    }\n\n    // @dev Used by client or service provider to cancel the project\n    function cancelProject()\n        public\n        returns(bool)\n    {\n        require(msg.sender == thisProject.client || msg.sender == serviceProvider, \"Contract can only be cancelled by client or service provider\");\n        if (msg.sender == thisProject.client)\n        {\n            thisProject.serviceProviderBalance += thisProject.phases[thisProject.currentPhase].initialPayment;\n            thisProject.escrowBalance -= thisProject.phases[thisProject.currentPhase].initialPayment;\n            thisProject.clientBalance += thisProject.phases[thisProject.currentPhase].finalPayment;\n            thisProject.escrowBalance -= thisProject.phases[thisProject.currentPhase].finalPayment;\n        }\n        if (msg.sender == serviceProvider)\n        {\n            thisProject.clientBalance += thisProject.phases[thisProject.currentPhase].initialPayment;\n            thisProject.escrowBalance -= thisProject.phases[thisProject.currentPhase].initialPayment;\n            thisProject.clientBalance += thisProject.phases[thisProject.currentPhase].finalPayment;\n            thisProject.escrowBalance -= thisProject.phases[thisProject.currentPhase].finalPayment;\n        }\n        thisProject.projectCancelled = true;\n        return thisProject.projectCancelled;\n    }\n}\n",
  "sourcePath": "/Users/jerryfireman/Projects/project-agreements-copy/contracts/ProjectAgreements.sol",
  "compiler": {
    "name": "solc",
    "version": "0.5.12+commit.7709ece9.Emscripten.clang"
  },
  "schemaVersion": "3.0.19",
  "updatedAt": "2020-03-04T20:11:03.635Z",
  "networkType": "ethereum",
  "devdoc": {
    "methods": {
      "serviceProviderWithdrawal(uint256)": {
        "details": "Used by service provider to withdraw funds from contract",
        "params": {
          "_withdrawAmount": "amount service provider wants to withdraw"
        }
      }
    }
  },
  "userdoc": {
    "methods": {}
  }
}