{
  "contractName": "SimpleStorage",
  "abi": [
    {
      "inputs": [
        {
          "internalType": "string",
          "name": "_name",
          "type": "string"
        },
        {
          "internalType": "string",
          "name": "_description",
          "type": "string"
        },
        {
          "internalType": "address payable",
          "name": "_client",
          "type": "address"
        }
      ],
      "payable": false,
      "stateMutability": "nonpayable",
      "type": "constructor"
    },
    {
      "payable": true,
      "stateMutability": "payable",
      "type": "fallback"
    },
    {
      "constant": true,
      "inputs": [],
      "name": "idGenerator",
      "outputs": [
        {
          "internalType": "uint256",
          "name": "",
          "type": "uint256"
        }
      ],
      "payable": false,
      "stateMutability": "view",
      "type": "function"
    },
    {
      "constant": true,
      "inputs": [],
      "name": "serviceProvider",
      "outputs": [
        {
          "internalType": "address payable",
          "name": "",
          "type": "address"
        }
      ],
      "payable": false,
      "stateMutability": "view",
      "type": "function"
    },
    {
      "constant": false,
      "inputs": [
        {
          "internalType": "uint256",
          "name": "x",
          "type": "uint256"
        }
      ],
      "name": "set",
      "outputs": [],
      "payable": false,
      "stateMutability": "nonpayable",
      "type": "function"
    },
    {
      "constant": true,
      "inputs": [],
      "name": "get",
      "outputs": [
        {
          "internalType": "uint256",
          "name": "",
          "type": "uint256"
        }
      ],
      "payable": false,
      "stateMutability": "view",
      "type": "function"
    },
    {
      "constant": false,
      "inputs": [],
      "name": "deposit",
      "outputs": [
        {
          "internalType": "uint256",
          "name": "",
          "type": "uint256"
        }
      ],
      "payable": true,
      "stateMutability": "payable",
      "type": "function"
    },
    {
      "constant": false,
      "inputs": [
        {
          "internalType": "uint256",
          "name": "_withdrawAmount",
          "type": "uint256"
        }
      ],
      "name": "clientWithdrawal",
      "outputs": [
        {
          "internalType": "uint256",
          "name": "",
          "type": "uint256"
        }
      ],
      "payable": true,
      "stateMutability": "payable",
      "type": "function"
    },
    {
      "constant": false,
      "inputs": [
        {
          "internalType": "uint256",
          "name": "_withdrawAmount",
          "type": "uint256"
        }
      ],
      "name": "serviceProviderWithdrawal",
      "outputs": [
        {
          "internalType": "uint256",
          "name": "",
          "type": "uint256"
        }
      ],
      "payable": true,
      "stateMutability": "payable",
      "type": "function"
    },
    {
      "constant": false,
      "inputs": [
        {
          "internalType": "string",
          "name": "_name",
          "type": "string"
        },
        {
          "internalType": "string",
          "name": "_description",
          "type": "string"
        },
        {
          "internalType": "uint256",
          "name": "_initialPayment",
          "type": "uint256"
        },
        {
          "internalType": "uint256",
          "name": "_finalPayment",
          "type": "uint256"
        }
      ],
      "name": "createPhase",
      "outputs": [
        {
          "internalType": "uint256",
          "name": "",
          "type": "uint256"
        }
      ],
      "payable": false,
      "stateMutability": "nonpayable",
      "type": "function"
    },
    {
      "constant": true,
      "inputs": [],
      "name": "readProject",
      "outputs": [
        {
          "internalType": "string",
          "name": "name",
          "type": "string"
        },
        {
          "internalType": "string",
          "name": "description",
          "type": "string"
        },
        {
          "internalType": "address",
          "name": "client",
          "type": "address"
        },
        {
          "internalType": "uint256",
          "name": "currentPhase",
          "type": "uint256"
        },
        {
          "internalType": "uint256",
          "name": "serviceProviderBalance",
          "type": "uint256"
        },
        {
          "internalType": "uint256",
          "name": "escrowBalance",
          "type": "uint256"
        },
        {
          "internalType": "uint256",
          "name": "clientBalance",
          "type": "uint256"
        },
        {
          "internalType": "bool",
          "name": "clientApprovedPhaseStructure",
          "type": "bool"
        },
        {
          "internalType": "bool",
          "name": "projectCancelled",
          "type": "bool"
        },
        {
          "internalType": "bool",
          "name": "projectCompleted",
          "type": "bool"
        }
      ],
      "payable": false,
      "stateMutability": "view",
      "type": "function"
    },
    {
      "constant": true,
      "inputs": [
        {
          "internalType": "uint256",
          "name": "_phase",
          "type": "uint256"
        }
      ],
      "name": "readPhase",
      "outputs": [
        {
          "internalType": "string",
          "name": "name",
          "type": "string"
        },
        {
          "internalType": "string",
          "name": "description",
          "type": "string"
        },
        {
          "internalType": "uint256",
          "name": "initialPayment",
          "type": "uint256"
        },
        {
          "internalType": "uint256",
          "name": "finalPayment",
          "type": "uint256"
        },
        {
          "internalType": "bool",
          "name": "phaseStarted",
          "type": "bool"
        },
        {
          "internalType": "bool",
          "name": "clientApproved",
          "type": "bool"
        }
      ],
      "payable": false,
      "stateMutability": "view",
      "type": "function"
    },
    {
      "constant": false,
      "inputs": [],
      "name": "serviceProviderStartNextPhase",
      "outputs": [
        {
          "internalType": "uint256",
          "name": "",
          "type": "uint256"
        }
      ],
      "payable": false,
      "stateMutability": "nonpayable",
      "type": "function"
    },
    {
      "constant": false,
      "inputs": [],
      "name": "approvePhaseStructure",
      "outputs": [
        {
          "internalType": "bool",
          "name": "",
          "type": "bool"
        }
      ],
      "payable": false,
      "stateMutability": "nonpayable",
      "type": "function"
    },
    {
      "constant": false,
      "inputs": [],
      "name": "approvePhase",
      "outputs": [
        {
          "internalType": "bool",
          "name": "",
          "type": "bool"
        }
      ],
      "payable": false,
      "stateMutability": "nonpayable",
      "type": "function"
    },
    {
      "constant": false,
      "inputs": [],
      "name": "cancelProject",
      "outputs": [
        {
          "internalType": "bool",
          "name": "",
          "type": "bool"
        }
      ],
      "payable": false,
      "stateMutability": "nonpayable",
      "type": "function"
    }
  ],
  "bytecode": "0x608060405260016002553480156200001657600080fd5b506040516200239a3803806200239a833981810160405260608110156200003c57600080fd5b81019080805160405193929190846401000000008211156200005d57600080fd5b838201915060208201858111156200007457600080fd5b82518660018202830111640100000000821117156200009257600080fd5b8083526020830192505050908051906020019080838360005b83811015620000c8578082015181840152602081019050620000ab565b50505050905090810190601f168015620000f65780820380516001836020036101000a031916815260200191505b50604052602001805160405193929190846401000000008211156200011a57600080fd5b838201915060208201858111156200013157600080fd5b82518660018202830111640100000000821117156200014f57600080fd5b8083526020830192505050908051906020019080838360005b838110156200018557808201518184015260208101905062000168565b50505050905090810190601f168015620001b35780820380516001836020036101000a031916815260200191505b506040526020018051906020019092919050505033600160006101000a81548173ffffffffffffffffffffffffffffffffffffffff021916908373ffffffffffffffffffffffffffffffffffffffff16021790555082600360000190805190602001906200022392919062000308565b5081600360010190805190602001906200023f92919062000308565b5080600360020160006101000a81548173ffffffffffffffffffffffffffffffffffffffff021916908373ffffffffffffffffffffffffffffffffffffffff1602179055506000600360040181905550600060036005018190555060006003600601819055506000600360080160006101000a81548160ff0219169083151502179055506000600360080160016101000a81548160ff0219169083151502179055506000600360080160026101000a81548160ff021916908315150217905550505050620003b7565b828054600181600116156101000203166002900490600052602060002090601f016020900481019282601f106200034b57805160ff19168380011785556200037c565b828001600101855582156200037c579182015b828111156200037b5782518255916020019190600101906200035e565b5b5090506200038b91906200038f565b5090565b620003b491905b80821115620003b057600081600090555060010162000396565b5090565b90565b611fd380620003c76000396000f3fe6080604052600436106100dd5760003560e01c80636d4ce63c1161007f578063aee624b011610059578063aee624b0146106b5578063d0e30db0146106e4578063db17794014610702578063e7bd92b91461072d576100dd565b80636d4ce63c146104c75780638d69e95e146104f2578063a39159d114610549576100dd565b806356d347c0116100bb57806356d347c0146101925780635b0f59d3146102d6578063603fe98c1461045d57806360fe47b11461048c576100dd565b80631adff0ee146100df57806347e291531461010e57806351a163cc14610150575b005b3480156100eb57600080fd5b506100f4610758565b604051808215151515815260200191505060405180910390f35b61013a6004803603602081101561012457600080fd5b8101908080359060200190929190505050610ac2565b6040518082815260200191505060405180910390f35b61017c6004803603602081101561016657600080fd5b8101908080359060200190929190505050610c74565b6040518082815260200191505060405180910390f35b34801561019e57600080fd5b506101cb600480360360208110156101b557600080fd5b8101908080359060200190929190505050610e03565b6040518080602001806020018781526020018681526020018515151515815260200184151515158152602001838103835289818151815260200191508051906020019080838360005b8381101561022f578082015181840152602081019050610214565b50505050905090810190601f16801561025c5780820380516001836020036101000a031916815260200191505b50838103825288818151815260200191508051906020019080838360005b8381101561029557808201518184015260208101905061027a565b50505050905090810190601f1680156102c25780820380516001836020036101000a031916815260200191505b509850505050505050505060405180910390f35b3480156102e257600080fd5b50610447600480360360808110156102f957600080fd5b810190808035906020019064010000000081111561031657600080fd5b82018360208201111561032857600080fd5b8035906020019184600183028401116401000000008311171561034a57600080fd5b91908080601f016020809104026020016040519081016040528093929190818152602001838380828437600081840152601f19601f820116905080830192505050505050509192919290803590602001906401000000008111156103ad57600080fd5b8201836020820111156103bf57600080fd5b803590602001918460018302840111640100000000831117156103e157600080fd5b91908080601f016020809104026020016040519081016040528093929190818152602001838380828437600081840152601f19601f8201169050808301925050505050505091929192908035906020019092919080359060200190929190505050611013565b6040518082815260200191505060405180910390f35b34801561046957600080fd5b506104726111ac565b604051808215151515815260200191505060405180910390f35b34801561049857600080fd5b506104c5600480360360208110156104af57600080fd5b81019080803590602001909291905050506114d9565b005b3480156104d357600080fd5b506104dc6114e3565b6040518082815260200191505060405180910390f35b3480156104fe57600080fd5b506105076114ec565b604051808273ffffffffffffffffffffffffffffffffffffffff1673ffffffffffffffffffffffffffffffffffffffff16815260200191505060405180910390f35b34801561055557600080fd5b5061055e611512565b6040518080602001806020018b73ffffffffffffffffffffffffffffffffffffffff1673ffffffffffffffffffffffffffffffffffffffff1681526020018a815260200189815260200188815260200187815260200186151515158152602001851515151581526020018415151515815260200183810383528d818151815260200191508051906020019080838360005b8381101561060a5780820151818401526020810190506105ef565b50505050905090810190601f1680156106375780820380516001836020036101000a031916815260200191505b5083810382528c818151815260200191508051906020019080838360005b83811015610670578082015181840152602081019050610655565b50505050905090810190601f16801561069d5780820380516001836020036101000a031916815260200191505b509c5050505050505050505050505060405180910390f35b3480156106c157600080fd5b506106ca611712565b604051808215151515815260200191505060405180910390f35b6106ec61187f565b6040518082815260200191505060405180910390f35b34801561070e57600080fd5b50610717611965565b6040518082815260200191505060405180910390f35b34801561073957600080fd5b50610742611d2f565b6040518082815260200191505060405180910390f35b6000600360020160009054906101000a900473ffffffffffffffffffffffffffffffffffffffff1673ffffffffffffffffffffffffffffffffffffffff163373ffffffffffffffffffffffffffffffffffffffff1614806108065750600160009054906101000a900473ffffffffffffffffffffffffffffffffffffffff1673ffffffffffffffffffffffffffffffffffffffff163373ffffffffffffffffffffffffffffffffffffffff16145b61085b576040517f08c379a000000000000000000000000000000000000000000000000000000000815260040180806020018281038252603c815260200180611e34603c913960400191505060405180910390fd5b600360020160009054906101000a900473ffffffffffffffffffffffffffffffffffffffff1673ffffffffffffffffffffffffffffffffffffffff163373ffffffffffffffffffffffffffffffffffffffff161415610975576003800160006003600401548152602001908152602001600020600201546003600501600082825401925050819055506003800160006003600401548152602001908152602001600020600201546003600601600082825403925050819055506003800160006003600401548152602001908152602001600020600301546003600701600082825401925050819055506003800160006003600401548152602001908152602001600020600301546003600601600082825401925050819055505b600160009054906101000a900473ffffffffffffffffffffffffffffffffffffffff1673ffffffffffffffffffffffffffffffffffffffff163373ffffffffffffffffffffffffffffffffffffffff161415610a8c576003800160006003600401548152602001908152602001600020600201546003600701600082825401925050819055506003800160006003600401548152602001908152602001600020600201546003600601600082825403925050819055506003800160006003600401548152602001908152602001600020600301546003600701600082825401925050819055506003800160006003600401548152602001908152602001600020600301546003600601600082825401925050819055505b6001600360080160016101000a81548160ff021916908315150217905550600360080160019054906101000a900460ff16905090565b6000600360020160009054906101000a900473ffffffffffffffffffffffffffffffffffffffff1673ffffffffffffffffffffffffffffffffffffffff163373ffffffffffffffffffffffffffffffffffffffff1614610b8a576040517f08c379a000000000000000000000000000000000000000000000000000000000815260040180806020018281038252601c8152602001807f4d6573736167652073656e646572206973206e6f7420636c69656e740000000081525060200191505060405180910390fd5b816003600701541015610be8576040517f08c379a000000000000000000000000000000000000000000000000000000000815260040180806020018281038252603c815260200180611e70603c913960400191505060405180910390fd5b81600360070160008282540392505081905550600360020160009054906101000a900473ffffffffffffffffffffffffffffffffffffffff1673ffffffffffffffffffffffffffffffffffffffff166108fc839081150290604051600060405180830381858888f19350505050158015610c66573d6000803e3d6000fd5b506003600701549050919050565b6000600160009054906101000a900473ffffffffffffffffffffffffffffffffffffffff1673ffffffffffffffffffffffffffffffffffffffff163373ffffffffffffffffffffffffffffffffffffffff1614610d1c576040517f08c379a0000000000000000000000000000000000000000000000000000000008152600401808060200182810382526026815260200180611ddb6026913960400191505060405180910390fd5b816003600501541015610d7a576040517f08c379a000000000000000000000000000000000000000000000000000000000815260040180806020018281038252603c815260200180611e70603c913960400191505060405180910390fd5b81600360050160008282540392505081905550600160009054906101000a900473ffffffffffffffffffffffffffffffffffffffff1673ffffffffffffffffffffffffffffffffffffffff166108fc839081150290604051600060405180830381858888f19350505050158015610df5573d6000803e3d6000fd5b506003600501549050919050565b6060806000806000806003800160008881526020019081526020016000206000018054600181600116156101000203166002900480601f016020809104026020016040519081016040528092919081815260200182805460018160011615610100020316600290048015610eb85780601f10610e8d57610100808354040283529160200191610eb8565b820191906000526020600020905b815481529060010190602001808311610e9b57829003601f168201915b505050505095506003800160008881526020019081526020016000206001018054600181600116156101000203166002900480601f016020809104026020016040519081016040528092919081815260200182805460018160011615610100020316600290048015610f6b5780601f10610f4057610100808354040283529160200191610f6b565b820191906000526020600020905b815481529060010190602001808311610f4e57829003601f168201915b5050505050945060038001600088815260200190815260200160002060020154935060038001600088815260200190815260200160002060030154925060038001600088815260200190815260200160002060040160009054906101000a900460ff16915060038001600088815260200190815260200160002060040160019054906101000a900460ff16905085858585858595509550955095509550955091939550919395565b6000600160009054906101000a900473ffffffffffffffffffffffffffffffffffffffff1673ffffffffffffffffffffffffffffffffffffffff163373ffffffffffffffffffffffffffffffffffffffff16146110bb576040517f08c379a0000000000000000000000000000000000000000000000000000000008152600401808060200182810382526026815260200180611ddb6026913960400191505060405180910390fd5b60001515600360080160009054906101000a900460ff1615151461112a576040517f08c379a000000000000000000000000000000000000000000000000000000000815260040180806020018281038252603c815260200180611f09603c913960400191505060405180910390fd5b6000600380016000600254815260200190815260200160002090508581600001908051906020019061115d929190611d35565b5084816001019080519060200190611176929190611d35565b50838160020181905550828160030181905550600260008154809291906001019190505550600160025403915050949350505050565b6000600360020160009054906101000a900473ffffffffffffffffffffffffffffffffffffffff1673ffffffffffffffffffffffffffffffffffffffff163373ffffffffffffffffffffffffffffffffffffffff1614611274576040517f08c379a000000000000000000000000000000000000000000000000000000000815260040180806020018281038252601c8152602001807f4d6573736167652073656e646572206973206e6f7420636c69656e740000000081525060200191505060405180910390fd5b60001515600380016000600360040154815260200190815260200160002060040160019054906101000a900460ff161515146112fb576040517f08c379a0000000000000000000000000000000000000000000000000000000008152600401808060200182810382526029815260200180611ee06029913960400191505060405180910390fd5b60011515600380016000600360040154815260200190815260200160002060040160009054906101000a900460ff16151514611382576040517f08c379a0000000000000000000000000000000000000000000000000000000008152600401808060200182810382526038815260200180611f456038913960400191505060405180910390fd5b6001600380016000600360040154815260200190815260200160002060040160016101000a81548160ff02191690831515021790555060038001600060036004015481526020019081526020016000206002015460036005016000828254019250508190555060038001600060036004015481526020019081526020016000206003015460036005016000828254019250508190555060038001600060036004015481526020019081526020016000206002015460036006016000828254039250508190555060038001600060036004015481526020019081526020016000206003015460036006016000828254039250508190555060016002540360036004015414156114a9576001600360080160026101000a81548160ff0219169083151502179055505b600380016000600360040154815260200190815260200160002060040160019054906101000a900460ff16905090565b8060008190555050565b60008054905090565b600160009054906101000a900473ffffffffffffffffffffffffffffffffffffffff1681565b60608060008060008060008060008060036000018054600181600116156101000203166002900480601f0160208091040260200160405190810160405280929190818152602001828054600181600116156101000203166002900480156115ba5780601f1061158f576101008083540402835291602001916115ba565b820191906000526020600020905b81548152906001019060200180831161159d57829003601f168201915b5050505050995060036001018054600181600116156101000203166002900480601f01602080910402602001604051908101604052809291908181526020018280546001816001161561010002031660029004801561165a5780601f1061162f5761010080835404028352916020019161165a565b820191906000526020600020905b81548152906001019060200180831161163d57829003601f168201915b50505050509850600360020160009054906101000a900473ffffffffffffffffffffffffffffffffffffffff1697506003600401549650600360050154955060036006015494506003600701549350600360080160009054906101000a900460ff169250600360080160019054906101000a900460ff169150600360080160029054906101000a900460ff16905089898989898989898989995099509950995099509950995099509950995090919293949596979899565b6000600360020160009054906101000a900473ffffffffffffffffffffffffffffffffffffffff1673ffffffffffffffffffffffffffffffffffffffff163373ffffffffffffffffffffffffffffffffffffffff16146117da576040517f08c379a000000000000000000000000000000000000000000000000000000000815260040180806020018281038252601c8152602001807f4d6573736167652073656e646572206973206e6f7420636c69656e740000000081525060200191505060405180910390fd5b60001515600360080160009054906101000a900460ff16151514611849576040517f08c379a0000000000000000000000000000000000000000000000000000000008152600401808060200182810382526033815260200180611e016033913960400191505060405180910390fd5b6001600360080160006101000a81548160ff021916908315150217905550600360080160009054906101000a900460ff16905090565b6000600360020160009054906101000a900473ffffffffffffffffffffffffffffffffffffffff1673ffffffffffffffffffffffffffffffffffffffff163373ffffffffffffffffffffffffffffffffffffffff1614611947576040517f08c379a000000000000000000000000000000000000000000000000000000000815260040180806020018281038252601c8152602001807f4d6573736167652073656e646572206973206e6f7420636c69656e740000000081525060200191505060405180910390fd5b34600360070160008282540192505081905550600360070154905090565b6000600160009054906101000a900473ffffffffffffffffffffffffffffffffffffffff1673ffffffffffffffffffffffffffffffffffffffff163373ffffffffffffffffffffffffffffffffffffffff1614611a0d576040517f08c379a0000000000000000000000000000000000000000000000000000000008152600401808060200182810382526026815260200180611ddb6026913960400191505060405180910390fd5b60011515600380016000600360040154815260200190815260200160002060040160019054906101000a900460ff1615151480611a4f57506000600360040154145b611ac1576040517f08c379a00000000000000000000000000000000000000000000000000000000081526004018080602001828103825260208152602001807f50726576696f7573207068617365206d75737420626520636f6d706c6574656481525060200191505060405180910390fd5b60001515600360080160029054906101000a900460ff16151514611b30576040517f08c379a0000000000000000000000000000000000000000000000000000000008152600401808060200182810382526022815260200180611f7d6022913960400191505060405180910390fd5b60001515600360080160019054906101000a900460ff16151514611bbc576040517f08c379a000000000000000000000000000000000000000000000000000000000815260040180806020018281038252601a8152602001807f50726f6a65637420686173206265656e2063616e63656c6c656400000000000081525060200191505060405180910390fd5b600060016003600401540190506003800160008281526020019081526020016000206003015460038001600083815260200190815260200160002060020154016003600701541015611c59576040517f08c379a0000000000000000000000000000000000000000000000000000000008152600401808060200182810382526034815260200180611eac6034913960400191505060405180910390fd5b806003600401819055506003800160008281526020019081526020016000206003015460038001600083815260200190815260200160002060020154016003600701600082825403925050819055506003800160008281526020019081526020016000206003015460038001600083815260200190815260200160002060020154016003600601600082825401925050819055506001600380016000600360040154815260200190815260200160002060040160006101000a81548160ff02191690831515021790555060036004015491505090565b60025481565b828054600181600116156101000203166002900490600052602060002090601f016020900481019282601f10611d7657805160ff1916838001178555611da4565b82800160010185558215611da4579182015b82811115611da3578251825591602001919060010190611d88565b5b509050611db19190611db5565b5090565b611dd791905b80821115611dd3576000816000905550600101611dbb565b5090565b9056fe4d6573736167652073656e646572206973206e6f7420736572766963652070726f766964657254686520636c69656e742068617320616c726561647920617070726f7665642074686520706861736520737472756374757265436f6e74726163742063616e206f6e6c792062652063616e63656c6c656420627920636c69656e74206f7220736572766963652070726f7669646572416d6f756e742072657175657374656420746f2077697468647261772069732067726561746572207468616e2063757272656e742062616c616e6365436c69656e742062616c616e6365206973206e6f742073756666696369656e7420746f20626567696e2074686973207068617365436c69656e742068617320616c726561647920617070726f7665642063757272656e74207068617365436c69656e742068617320617070726f7665642070686173652073747275637475726520736f2069742063616e6e6f74206265206368616e6765642e5468697320706861736520686173206e6f74206265656e207374617274656420736f2069742063616e6e6f7420626520617070726f76656450726f6a6563742068617320616c7265616479206265656e20636f6d706c65746564a265627a7a723158203128ac68f4293f3161bece96675552a105192cc4055fb820d150f4f1693c095f64736f6c634300050c0032",
  "source": "pragma solidity >=0.4.21 <0.7.0;\n\ncontract SimpleStorage {\n  uint storedData;\n\n  function set(uint x) public {\n    storedData = x;\n  }\n\n  function get() public view returns (uint) {\n    return storedData;\n  }\n\n    // @dev The person providing the service\n    address payable public serviceProvider;\n\n    // @dev Used to track the numbers of project phases\n    uint public idGenerator = 1;\n\n    // @dev Tracks the information associated with each phase\n    struct Phase {\n        string name;\n        string description;\n        uint initialPayment; // this goes to service provider when client approves phase;\n            // it goes to service provider if client cancels or client if service provider cancels\n        uint finalPayment; // this goes to service provider when client approves phase; to client if service provider or client cancels\n        bool phaseStarted; // service provider starts the phase; initial payment moves into escrow\n        bool clientApproved; // set true when client approves phase\n    }\n\n    // @dev Tracks the information associated with the project\n    // how to read Phases mapping: https://ethereum.stackexchange.com/questions/46840/how-to-access-mappings-with-web3js\n    struct Project {\n        string name;\n        string description;\n        address payable client;\n        mapping (uint => Phase) phases;\n        uint currentPhase;\n        uint serviceProviderBalance;\n        uint escrowBalance;\n        uint clientBalance;\n        bool clientApprovedPhaseStructure;\n        bool projectCancelled;\n        bool projectCompleted;\n    }\n\n    Project thisProject;\n\n    // @dev Throws error if the msg.sender is not the service provider\n    modifier onlyServiceProvider {\n        require(msg.sender == serviceProvider, \"Message sender is not service provider\");\n        _;\n    }\n\n    // @dev Throws error if the msg.sender is not the client\n    modifier onlyClient {\n        require(msg.sender == thisProject.client, \"Message sender is not client\");\n        _;\n    }\n\n    // @dev Throws error if phase structure has been approved by client\n    modifier phaseStructureNotApproved {\n        require(thisProject.clientApprovedPhaseStructure == false, \"Client has approved phase structure so it cannot be changed.\");\n        _;\n    }\n\n    // @dev Sets serviceProvider to the address that instantiated the project\n    // @dev Sets the appropriate project details\n    constructor(string memory _name, string memory _description, address payable _client)\n        public\n    {\n        serviceProvider = msg.sender;\n        thisProject.name = _name;\n        thisProject.description = _description;\n        thisProject.client = _client;\n        thisProject.currentPhase = 0;\n        thisProject.serviceProviderBalance = 0;\n        thisProject.escrowBalance = 0;\n        thisProject.clientApprovedPhaseStructure = false;\n        thisProject.projectCancelled = false;\n        thisProject.projectCompleted = false;\n    }\n\n    // @dev Used by client to deposit funds into contract\n    function deposit()\n        public\n        payable\n        onlyClient\n        returns (uint)\n    {\n        thisProject.clientBalance += msg.value;\n        return thisProject.clientBalance;\n    }\n\n    // Fallback function returns funds sent to contract without data\n    function()\n        external\n        payable\n    {\n\n    }\n\n    // @dev Used by client to withdraw funds from contract\n    // @param _withdrawAmount amount client wants to withdraw\n    function clientWithdrawal(uint _withdrawAmount)\n        public\n        payable\n        onlyClient\n        returns (uint)\n    {\n        require(thisProject.clientBalance >= _withdrawAmount, \"Amount requested to withdraw is greater than current balance\");\n        thisProject.clientBalance -= _withdrawAmount;\n        thisProject.client.transfer(_withdrawAmount);\n        return thisProject.clientBalance;\n    }\n\n    /// @dev Used by service provider to withdraw funds from contract\n    /// @param _withdrawAmount amount service provider wants to withdraw\n    function serviceProviderWithdrawal(uint _withdrawAmount)\n        public\n        payable\n        onlyServiceProvider\n        returns (uint)\n    {\n        require(thisProject.serviceProviderBalance >= _withdrawAmount, \"Amount requested to withdraw is greater than current balance\");\n        thisProject.serviceProviderBalance -= _withdrawAmount;\n        serviceProvider.transfer(_withdrawAmount);\n        return thisProject.serviceProviderBalance;\n    }\n\n    // @ dev Used by service provider to define the phases in the project\n    function createPhase(string memory _name, string memory _description, uint _initialPayment, uint _finalPayment)\n        public\n        onlyServiceProvider\n        phaseStructureNotApproved\n        returns(uint)\n    {\n        Phase storage newPhase = thisProject.phases[idGenerator];\n        newPhase.name = _name;\n        newPhase.description = _description;\n        newPhase.initialPayment = _initialPayment;\n        newPhase.finalPayment = _finalPayment;\n        idGenerator++;\n        return idGenerator - 1;\n    }\n\n    // @dev Provides information on the current project\n    function readProject()\n        public\n        view\n        returns(string memory name, string memory description, address client, uint currentPhase, uint serviceProviderBalance, uint escrowBalance, uint clientBalance, bool clientApprovedPhaseStructure, bool projectCancelled, bool projectCompleted)\n    {\n        name = thisProject.name;\n        description = thisProject.description;\n        client = thisProject.client;\n        currentPhase = thisProject.currentPhase;\n        serviceProviderBalance = thisProject.serviceProviderBalance;\n        escrowBalance = thisProject.escrowBalance;\n        clientBalance = thisProject.clientBalance;\n        clientApprovedPhaseStructure = thisProject.clientApprovedPhaseStructure;\n        projectCancelled = thisProject.projectCancelled;\n        projectCompleted = thisProject.projectCompleted;\n        return(name, description, client, currentPhase, serviceProviderBalance,\n            escrowBalance, clientBalance, clientApprovedPhaseStructure,\n            projectCancelled, projectCompleted);\n    }\n\n     // @dev Provides information on a phase of the project\n    function readPhase(uint _phase)\n        public\n        view\n        returns(string memory name, string memory description, uint initialPayment, uint finalPayment, bool phaseStarted, bool clientApproved)\n    {\n        name = thisProject.phases[_phase].name;\n        description = thisProject.phases[_phase].description;\n        initialPayment = thisProject.phases[_phase].initialPayment;\n        finalPayment = thisProject.phases[_phase].finalPayment;\n        phaseStarted = thisProject.phases[_phase].phaseStarted;\n        clientApproved = thisProject.phases[_phase].clientApproved;\n\n        return(name, description, initialPayment, finalPayment, phaseStarted, clientApproved);\n    }\n\n    // @dev Executed by service provider to start the next phase of the project\n    // @dev All previous phases must be completed\n    // @dev Client balance must exceed initial payment\n    function serviceProviderStartNextPhase()\n        public\n        onlyServiceProvider\n        returns(uint)\n    {\n        require(thisProject.phases[thisProject.currentPhase].clientApproved == true || (thisProject.currentPhase == 0),\n            \"Previous phase must be completed\");\n        require(thisProject.projectCompleted == false, \"Project has already been completed\");\n        require(thisProject.projectCancelled == false, \"Project has been cancelled\");\n        uint nextPhase = (thisProject.currentPhase + 1);\n        require(thisProject.clientBalance >= thisProject.phases[nextPhase].initialPayment + thisProject.phases[nextPhase].finalPayment,\n            \"Client balance is not sufficient to begin this phase\");\n        thisProject.currentPhase = nextPhase;\n        thisProject.clientBalance -= thisProject.phases[nextPhase].initialPayment + thisProject.phases[nextPhase].finalPayment;\n        thisProject.escrowBalance += thisProject.phases[nextPhase].initialPayment + thisProject.phases[nextPhase].finalPayment;\n        thisProject.phases[thisProject.currentPhase].phaseStarted = true;\n        return thisProject.currentPhase;\n    }\n\n    // @dev Executed by client to approve and finalize the phase structure of the project.\n    function approvePhaseStructure()\n        public\n        onlyClient\n        returns(bool)\n    {\n        require(thisProject.clientApprovedPhaseStructure == false,\"The client has already approved the phase structure\");\n        thisProject.clientApprovedPhaseStructure = true;\n        return thisProject.clientApprovedPhaseStructure;\n    }\n\n     // @dev Used by client to approve and finalize the current phase\n    function approvePhase()\n        public\n        onlyClient\n        returns(bool)\n    {\n        require(thisProject.phases[thisProject.currentPhase].clientApproved == false,\"Client has already approved current phase\");\n        require(thisProject.phases[thisProject.currentPhase].phaseStarted == true,\"This phase has not been started so it cannot be approved\");\n        thisProject.phases[thisProject.currentPhase].clientApproved = true;\n        thisProject.serviceProviderBalance += thisProject.phases[thisProject.currentPhase].initialPayment;\n        thisProject.serviceProviderBalance += thisProject.phases[thisProject.currentPhase].finalPayment;\n        thisProject.escrowBalance -= thisProject.phases[thisProject.currentPhase].initialPayment;\n        thisProject.escrowBalance -= thisProject.phases[thisProject.currentPhase].finalPayment;\n\n    // @dev If the current phase is the last phase of the project then project is finished\n        if (thisProject.currentPhase == (idGenerator - 1))\n        {\n            thisProject.projectCompleted = true;\n        }\n        return thisProject.phases[thisProject.currentPhase].clientApproved;\n    }\n\n    // @dev Used by client or service provider to cancel the project\n    function cancelProject()\n        public\n        returns(bool)\n    {\n        require(msg.sender == thisProject.client || msg.sender == serviceProvider, \"Contract can only be cancelled by client or service provider\");\n        if (msg.sender == thisProject.client)\n        {\n            thisProject.serviceProviderBalance += thisProject.phases[thisProject.currentPhase].initialPayment;\n            thisProject.escrowBalance -= thisProject.phases[thisProject.currentPhase].initialPayment;\n            thisProject.clientBalance += thisProject.phases[thisProject.currentPhase].finalPayment;\n            thisProject.escrowBalance += thisProject.phases[thisProject.currentPhase].finalPayment;\n        }\n        if (msg.sender == serviceProvider)\n        {\n            thisProject.clientBalance += thisProject.phases[thisProject.currentPhase].initialPayment;\n            thisProject.escrowBalance -= thisProject.phases[thisProject.currentPhase].initialPayment;\n            thisProject.clientBalance += thisProject.phases[thisProject.currentPhase].finalPayment;\n            thisProject.escrowBalance += thisProject.phases[thisProject.currentPhase].finalPayment;\n        }\n        thisProject.projectCancelled = true;\n        return thisProject.projectCancelled;\n    }\n\n\n}\n",
  "sourcePath": "/Users/jerryfireman/Projects/consensys-academy/class-project/contracts/SimpleStorage.sol",
  "compiler": {
    "name": "solc",
    "version": "0.5.12+commit.7709ece9.Emscripten.clang"
  },
  "schemaVersion": "3.0.19",
  "updatedAt": "2020-01-17T15:37:18.577Z",
  "networkType": "ethereum",
  "devdoc": {
    "methods": {
      "serviceProviderWithdrawal(uint256)": {
        "details": "Used by service provider to withdraw funds from contract",
        "params": {
          "_withdrawAmount": "amount service provider wants to withdraw"
        }
      }
    }
  },
  "userdoc": {
    "methods": {}
  }
}